{
  "_format": "hh-sol-artifact-1",
  "contractName": "TokenBridge",
  "sourceName": "contracts/bridge/TokenBridge.sol",
  "abi": [
    {
      "inputs": [
        {
          "internalType": "uint256",
          "name": "_timeLock",
          "type": "uint256"
        }
      ],
      "stateMutability": "nonpayable",
      "type": "constructor"
    },
    {
      "anonymous": false,
      "inputs": [
        {
          "indexed": false,
          "internalType": "bool",
          "name": "",
          "type": "bool"
        }
      ],
      "name": "ChangeActive",
      "type": "event"
    },
    {
      "anonymous": false,
      "inputs": [
        {
          "indexed": false,
          "internalType": "uint256",
          "name": "_timeLock",
          "type": "uint256"
        }
      ],
      "name": "ChangeTimeLock",
      "type": "event"
    },
    {
      "anonymous": false,
      "inputs": [
        {
          "indexed": false,
          "internalType": "bytes32",
          "name": "_boxID",
          "type": "bytes32"
        },
        {
          "indexed": false,
          "internalType": "bytes",
          "name": "_secretKey",
          "type": "bytes"
        }
      ],
      "name": "CloseDeposit",
      "type": "event"
    },
    {
      "anonymous": false,
      "inputs": [
        {
          "indexed": false,
          "internalType": "bytes32",
          "name": "_boxID",
          "type": "bytes32"
        },
        {
          "indexed": false,
          "internalType": "bytes",
          "name": "_secretKey",
          "type": "bytes"
        }
      ],
      "name": "CloseWithdraw",
      "type": "event"
    },
    {
      "anonymous": false,
      "inputs": [
        {
          "indexed": false,
          "internalType": "bytes32",
          "name": "tokenId",
          "type": "bytes32"
        },
        {
          "indexed": false,
          "internalType": "address",
          "name": "provider",
          "type": "address"
        },
        {
          "indexed": false,
          "internalType": "uint256",
          "name": "amount",
          "type": "uint256"
        }
      ],
      "name": "DecreasedLiquidity",
      "type": "event"
    },
    {
      "anonymous": false,
      "inputs": [
        {
          "indexed": false,
          "internalType": "bytes32",
          "name": "_boxID",
          "type": "bytes32"
        }
      ],
      "name": "ExpireDeposit",
      "type": "event"
    },
    {
      "anonymous": false,
      "inputs": [
        {
          "indexed": false,
          "internalType": "bytes32",
          "name": "_boxID",
          "type": "bytes32"
        }
      ],
      "name": "ExpireWithdraw",
      "type": "event"
    },
    {
      "anonymous": false,
      "inputs": [
        {
          "indexed": false,
          "internalType": "bytes32",
          "name": "tokenId",
          "type": "bytes32"
        },
        {
          "indexed": false,
          "internalType": "address",
          "name": "provider",
          "type": "address"
        },
        {
          "indexed": false,
          "internalType": "uint256",
          "name": "amount",
          "type": "uint256"
        }
      ],
      "name": "IncreasedLiquidity",
      "type": "event"
    },
    {
      "anonymous": false,
      "inputs": [
        {
          "indexed": false,
          "internalType": "bytes32",
          "name": "_boxID",
          "type": "bytes32"
        },
        {
          "indexed": false,
          "internalType": "bytes32",
          "name": "_secretLock",
          "type": "bytes32"
        }
      ],
      "name": "OpenDeposit",
      "type": "event"
    },
    {
      "anonymous": false,
      "inputs": [
        {
          "indexed": false,
          "internalType": "bytes32",
          "name": "_boxID",
          "type": "bytes32"
        },
        {
          "indexed": false,
          "internalType": "bytes32",
          "name": "_secretLock",
          "type": "bytes32"
        }
      ],
      "name": "OpenWithdraw",
      "type": "event"
    },
    {
      "anonymous": false,
      "inputs": [
        {
          "indexed": true,
          "internalType": "address",
          "name": "previousOwner",
          "type": "address"
        },
        {
          "indexed": true,
          "internalType": "address",
          "name": "newOwner",
          "type": "address"
        }
      ],
      "name": "OwnershipTransferred",
      "type": "event"
    },
    {
      "anonymous": false,
      "inputs": [
        {
          "indexed": true,
          "internalType": "bytes32",
          "name": "role",
          "type": "bytes32"
        },
        {
          "indexed": true,
          "internalType": "bytes32",
          "name": "previousAdminRole",
          "type": "bytes32"
        },
        {
          "indexed": true,
          "internalType": "bytes32",
          "name": "newAdminRole",
          "type": "bytes32"
        }
      ],
      "name": "RoleAdminChanged",
      "type": "event"
    },
    {
      "anonymous": false,
      "inputs": [
        {
          "indexed": true,
          "internalType": "bytes32",
          "name": "role",
          "type": "bytes32"
        },
        {
          "indexed": true,
          "internalType": "address",
          "name": "account",
          "type": "address"
        },
        {
          "indexed": true,
          "internalType": "address",
          "name": "sender",
          "type": "address"
        }
      ],
      "name": "RoleGranted",
      "type": "event"
    },
    {
      "anonymous": false,
      "inputs": [
        {
          "indexed": true,
          "internalType": "bytes32",
          "name": "role",
          "type": "bytes32"
        },
        {
          "indexed": true,
          "internalType": "address",
          "name": "account",
          "type": "address"
        },
        {
          "indexed": true,
          "internalType": "address",
          "name": "sender",
          "type": "address"
        }
      ],
      "name": "RoleRevoked",
      "type": "event"
    },
    {
      "anonymous": false,
      "inputs": [
        {
          "indexed": false,
          "internalType": "bytes32",
          "name": "tokenId",
          "type": "bytes32"
        },
        {
          "indexed": false,
          "internalType": "address",
          "name": "tokenAddress",
          "type": "address"
        }
      ],
      "name": "TokenRegistered",
      "type": "event"
    },
    {
      "inputs": [],
      "name": "DEFAULT_ADMIN_ROLE",
      "outputs": [
        {
          "internalType": "bytes32",
          "name": "",
          "type": "bytes32"
        }
      ],
      "stateMutability": "view",
      "type": "function"
    },
    {
      "inputs": [],
      "name": "MANAGER_ROLE",
      "outputs": [
        {
          "internalType": "bytes32",
          "name": "",
          "type": "bytes32"
        }
      ],
      "stateMutability": "view",
      "type": "function"
    },
    {
      "inputs": [],
      "name": "active",
      "outputs": [
        {
          "internalType": "bool",
          "name": "",
          "type": "bool"
        }
      ],
      "stateMutability": "view",
      "type": "function"
    },
    {
      "inputs": [
        {
          "internalType": "address",
          "name": "account",
          "type": "address"
        }
      ],
      "name": "addManager",
      "outputs": [],
      "stateMutability": "nonpayable",
      "type": "function"
    },
    {
      "inputs": [
        {
          "internalType": "bytes32",
          "name": "_tokenId",
          "type": "bytes32"
        },
        {
          "internalType": "address",
          "name": "_provider",
          "type": "address"
        }
      ],
      "name": "balanceOfLiquidity",
      "outputs": [
        {
          "internalType": "uint256",
          "name": "amount",
          "type": "uint256"
        }
      ],
      "stateMutability": "view",
      "type": "function"
    },
    {
      "inputs": [
        {
          "internalType": "uint256",
          "name": "_timeLock",
          "type": "uint256"
        }
      ],
      "name": "changeTimeLock",
      "outputs": [],
      "stateMutability": "nonpayable",
      "type": "function"
    },
    {
      "inputs": [
        {
          "internalType": "bytes32",
          "name": "_boxID",
          "type": "bytes32"
        }
      ],
      "name": "checkDeposit",
      "outputs": [
        {
          "internalType": "enum TokenBridge.States",
          "name": "states",
          "type": "uint8"
        },
        {
          "internalType": "bytes32",
          "name": "tokenId",
          "type": "bytes32"
        },
        {
          "internalType": "uint256",
          "name": "timeLock",
          "type": "uint256"
        },
        {
          "internalType": "uint256",
          "name": "amount",
          "type": "uint256"
        },
        {
          "internalType": "uint256",
          "name": "txFee",
          "type": "uint256"
        },
        {
          "internalType": "address",
          "name": "traderAddress",
          "type": "address"
        },
        {
          "internalType": "address",
          "name": "withdrawAddress",
          "type": "address"
        },
        {
          "internalType": "bytes32",
          "name": "secretLock",
          "type": "bytes32"
        },
        {
          "internalType": "uint256",
          "name": "createTimestamp",
          "type": "uint256"
        }
      ],
      "stateMutability": "view",
      "type": "function"
    },
    {
      "inputs": [
        {
          "internalType": "bytes32",
          "name": "_boxID",
          "type": "bytes32"
        }
      ],
      "name": "checkSecretKeyDeposit",
      "outputs": [
        {
          "internalType": "bytes",
          "name": "secretKey",
          "type": "bytes"
        }
      ],
      "stateMutability": "view",
      "type": "function"
    },
    {
      "inputs": [
        {
          "internalType": "bytes32",
          "name": "_boxID",
          "type": "bytes32"
        }
      ],
      "name": "checkSecretKeyWithdraw",
      "outputs": [
        {
          "internalType": "bytes",
          "name": "secretKey",
          "type": "bytes"
        }
      ],
      "stateMutability": "view",
      "type": "function"
    },
    {
      "inputs": [
        {
          "internalType": "bytes32",
          "name": "_boxID",
          "type": "bytes32"
        }
      ],
      "name": "checkWithdraw",
      "outputs": [
        {
          "internalType": "enum TokenBridge.States",
          "name": "states",
          "type": "uint8"
        },
        {
          "internalType": "bytes32",
          "name": "tokenId",
          "type": "bytes32"
        },
        {
          "internalType": "uint256",
          "name": "timeLock",
          "type": "uint256"
        },
        {
          "internalType": "uint256",
          "name": "amount",
          "type": "uint256"
        },
        {
          "internalType": "address",
          "name": "traderAddress",
          "type": "address"
        },
        {
          "internalType": "address",
          "name": "withdrawAddress",
          "type": "address"
        },
        {
          "internalType": "bytes32",
          "name": "secretLock",
          "type": "bytes32"
        },
        {
          "internalType": "uint256",
          "name": "createTimestamp",
          "type": "uint256"
        }
      ],
      "stateMutability": "view",
      "type": "function"
    },
    {
      "inputs": [
        {
          "internalType": "bytes32",
          "name": "_boxID",
          "type": "bytes32"
        },
        {
          "internalType": "bytes",
          "name": "_secretKey",
          "type": "bytes"
        }
      ],
      "name": "closeDeposit",
      "outputs": [],
      "stateMutability": "nonpayable",
      "type": "function"
    },
    {
      "inputs": [
        {
          "internalType": "bytes32",
          "name": "_boxID",
          "type": "bytes32"
        },
        {
          "internalType": "bytes",
          "name": "_secretKey",
          "type": "bytes"
        }
      ],
      "name": "closeWithdraw",
      "outputs": [],
      "stateMutability": "nonpayable",
      "type": "function"
    },
    {
      "inputs": [
        {
          "internalType": "bytes32",
          "name": "_tokenId",
          "type": "bytes32"
        },
        {
          "internalType": "uint256",
          "name": "_amount",
          "type": "uint256"
        }
      ],
      "name": "decreaseLiquidity",
      "outputs": [],
      "stateMutability": "nonpayable",
      "type": "function"
    },
    {
      "inputs": [],
      "name": "depositTimeLock",
      "outputs": [
        {
          "internalType": "uint256",
          "name": "",
          "type": "uint256"
        }
      ],
      "stateMutability": "view",
      "type": "function"
    },
    {
      "inputs": [
        {
          "internalType": "bytes32",
          "name": "_boxID",
          "type": "bytes32"
        }
      ],
      "name": "expireDeposit",
      "outputs": [],
      "stateMutability": "nonpayable",
      "type": "function"
    },
    {
      "inputs": [
        {
          "internalType": "bytes32",
          "name": "_boxID",
          "type": "bytes32"
        }
      ],
      "name": "expireWithdraw",
      "outputs": [],
      "stateMutability": "nonpayable",
      "type": "function"
    },
    {
      "inputs": [
        {
          "internalType": "bytes32",
          "name": "role",
          "type": "bytes32"
        }
      ],
      "name": "getRoleAdmin",
      "outputs": [
        {
          "internalType": "bytes32",
          "name": "",
          "type": "bytes32"
        }
      ],
      "stateMutability": "view",
      "type": "function"
    },
    {
      "inputs": [
        {
          "internalType": "bytes32",
          "name": "role",
          "type": "bytes32"
        },
        {
          "internalType": "address",
          "name": "account",
          "type": "address"
        }
      ],
      "name": "grantRole",
      "outputs": [],
      "stateMutability": "nonpayable",
      "type": "function"
    },
    {
      "inputs": [
        {
          "internalType": "bytes32",
          "name": "role",
          "type": "bytes32"
        },
        {
          "internalType": "address",
          "name": "account",
          "type": "address"
        }
      ],
      "name": "hasRole",
      "outputs": [
        {
          "internalType": "bool",
          "name": "",
          "type": "bool"
        }
      ],
      "stateMutability": "view",
      "type": "function"
    },
    {
      "inputs": [
        {
          "internalType": "bytes32",
          "name": "_tokenId",
          "type": "bytes32"
        },
        {
          "internalType": "uint256",
          "name": "_amount",
          "type": "uint256"
        }
      ],
      "name": "increaseLiquidity",
      "outputs": [],
      "stateMutability": "nonpayable",
      "type": "function"
    },
    {
      "inputs": [
        {
          "internalType": "address",
          "name": "account",
          "type": "address"
        }
      ],
      "name": "isManager",
      "outputs": [
        {
          "internalType": "bool",
          "name": "",
          "type": "bool"
        }
      ],
      "stateMutability": "view",
      "type": "function"
    },
    {
      "inputs": [
        {
          "internalType": "address",
          "name": "account",
          "type": "address"
        }
      ],
      "name": "isOwner",
      "outputs": [
        {
          "internalType": "bool",
          "name": "",
          "type": "bool"
        }
      ],
      "stateMutability": "view",
      "type": "function"
    },
    {
      "inputs": [
        {
          "internalType": "bytes32",
          "name": "_tokenId",
          "type": "bytes32"
        },
        {
          "internalType": "bytes32",
          "name": "_boxID",
          "type": "bytes32"
        },
        {
          "internalType": "uint256",
          "name": "_amount",
          "type": "uint256"
        },
        {
          "internalType": "address",
          "name": "_withdrawAddress",
          "type": "address"
        },
        {
          "internalType": "bytes32",
          "name": "_secretLock",
          "type": "bytes32"
        }
      ],
      "name": "openDeposit",
      "outputs": [],
      "stateMutability": "payable",
      "type": "function"
    },
    {
      "inputs": [
        {
          "internalType": "bytes32",
          "name": "_tokenId",
          "type": "bytes32"
        },
        {
          "internalType": "bytes32",
          "name": "_boxID",
          "type": "bytes32"
        },
        {
          "internalType": "uint256",
          "name": "_amount",
          "type": "uint256"
        },
        {
          "internalType": "address",
          "name": "_traderAddress",
          "type": "address"
        },
        {
          "internalType": "address",
          "name": "_withdrawAddress",
          "type": "address"
        },
        {
          "internalType": "bytes32",
          "name": "_secretLock",
          "type": "bytes32"
        }
      ],
      "name": "openWithdraw",
      "outputs": [],
      "stateMutability": "nonpayable",
      "type": "function"
    },
    {
      "inputs": [],
      "name": "owner",
      "outputs": [
        {
          "internalType": "address",
          "name": "",
          "type": "address"
        }
      ],
      "stateMutability": "view",
      "type": "function"
    },
    {
      "inputs": [
        {
          "internalType": "bytes32",
          "name": "_tokenId",
          "type": "bytes32"
        },
        {
          "internalType": "address",
          "name": "_tokenAddress",
          "type": "address"
        }
      ],
      "name": "registerToken",
      "outputs": [],
      "stateMutability": "nonpayable",
      "type": "function"
    },
    {
      "inputs": [
        {
          "internalType": "address",
          "name": "account",
          "type": "address"
        }
      ],
      "name": "removeManager",
      "outputs": [],
      "stateMutability": "nonpayable",
      "type": "function"
    },
    {
      "inputs": [],
      "name": "renounceOwnership",
      "outputs": [],
      "stateMutability": "nonpayable",
      "type": "function"
    },
    {
      "inputs": [
        {
          "internalType": "bytes32",
          "name": "role",
          "type": "bytes32"
        },
        {
          "internalType": "address",
          "name": "account",
          "type": "address"
        }
      ],
      "name": "renounceRole",
      "outputs": [],
      "stateMutability": "nonpayable",
      "type": "function"
    },
    {
      "inputs": [
        {
          "internalType": "bytes32",
          "name": "role",
          "type": "bytes32"
        },
        {
          "internalType": "address",
          "name": "account",
          "type": "address"
        }
      ],
      "name": "revokeRole",
      "outputs": [],
      "stateMutability": "nonpayable",
      "type": "function"
    },
    {
      "inputs": [
        {
          "internalType": "bool",
          "name": "_value",
          "type": "bool"
        }
      ],
      "name": "setActive",
      "outputs": [],
      "stateMutability": "nonpayable",
      "type": "function"
    },
    {
      "inputs": [
        {
          "internalType": "bytes4",
          "name": "interfaceId",
          "type": "bytes4"
        }
      ],
      "name": "supportsInterface",
      "outputs": [
        {
          "internalType": "bool",
          "name": "",
          "type": "bool"
        }
      ],
      "stateMutability": "view",
      "type": "function"
    },
    {
      "inputs": [
        {
          "internalType": "bytes32",
          "name": "",
          "type": "bytes32"
        }
      ],
      "name": "tokens",
      "outputs": [
        {
          "internalType": "contract ERC20",
          "name": "token",
          "type": "address"
        },
        {
          "internalType": "address",
          "name": "tokenAddress",
          "type": "address"
        },
        {
          "internalType": "enum TokenBridge.TokenStatus",
          "name": "status",
          "type": "uint8"
        }
      ],
      "stateMutability": "view",
      "type": "function"
    },
    {
      "inputs": [
        {
          "internalType": "address",
          "name": "newOwner",
          "type": "address"
        }
      ],
      "name": "transferOwnership",
      "outputs": [],
      "stateMutability": "nonpayable",
      "type": "function"
    },
    {
      "inputs": [],
      "name": "withdrawTimeLock",
      "outputs": [
        {
          "internalType": "uint256",
          "name": "",
          "type": "uint256"
        }
      ],
      "stateMutability": "view",
      "type": "function"
    },
    {
      "inputs": [],
      "name": "withdrawTxFee",
      "outputs": [],
      "stateMutability": "nonpayable",
      "type": "function"
    }
  ],
  "bytecode": "0x60806040523480156200001157600080fd5b50604051620059d9380380620059d98339818101604052810190620000379190620003e0565b620000576200004b620000df60201b60201c565b620000e760201b60201c565b6200006c6000801b33620001ad60201b60201c565b620000a17f241ecf16d79d0f8dbfb92cbc07fe17840425976cf0667f022fe9877caa831b086000801b620001c360201b60201c565b600281620000b0919062000441565b600381905550806004819055506001600560006101000a81548160ff021916908315150217905550506200048c565b600033905090565b6000600160009054906101000a900473ffffffffffffffffffffffffffffffffffffffff16905081600160006101000a81548173ffffffffffffffffffffffffffffffffffffffff021916908373ffffffffffffffffffffffffffffffffffffffff1602179055508173ffffffffffffffffffffffffffffffffffffffff168173ffffffffffffffffffffffffffffffffffffffff167f8be0079c531659141344cd1fd0a4f28419497f9722a3daafe3b4186f6b6457e060405160405180910390a35050565b620001bf82826200022660201b60201c565b5050565b6000620001d6836200031760201b60201c565b905081600080858152602001908152602001600020600101819055508181847fbd79b86ffe0ab8e8776151514217cd7cacd52c909f66475c3af44e129f0b00ff60405160405180910390a4505050565b6200023882826200033660201b60201c565b6200031357600160008084815260200190815260200160002060000160008373ffffffffffffffffffffffffffffffffffffffff1673ffffffffffffffffffffffffffffffffffffffff16815260200190815260200160002060006101000a81548160ff021916908315150217905550620002b8620000df60201b60201c565b73ffffffffffffffffffffffffffffffffffffffff168173ffffffffffffffffffffffffffffffffffffffff16837f2f8788117e7eff1d82e926ec794901d17c78024a50270940304540a733656f0d60405160405180910390a45b5050565b6000806000838152602001908152602001600020600101549050919050565b600080600084815260200190815260200160002060000160008373ffffffffffffffffffffffffffffffffffffffff1673ffffffffffffffffffffffffffffffffffffffff16815260200190815260200160002060009054906101000a900460ff16905092915050565b600080fd5b6000819050919050565b620003ba81620003a5565b8114620003c657600080fd5b50565b600081519050620003da81620003af565b92915050565b600060208284031215620003f957620003f8620003a0565b5b60006200040984828501620003c9565b91505092915050565b7f4e487b7100000000000000000000000000000000000000000000000000000000600052601160045260246000fd5b60006200044e82620003a5565b91506200045b83620003a5565b92508282026200046b81620003a5565b9150828204841483151762000485576200048462000412565b5b5092915050565b61553d806200049c6000396000f3fe60806040526004361061020f5760003560e01c806375338fb411610118578063ac18de43116100a0578063c7f7a1ba1161006f578063c7f7a1ba146107a9578063d547741f146107e6578063ec87621c1461080f578063f2fde38b1461083a578063f3ae2415146108635761020f565b8063ac18de43146106f1578063acec338a1461071a578063ae2e39ca14610743578063b5d323f4146107805761020f565b8063904194a3116100e7578063904194a3146105e457806391d1485414610623578063a217fddf14610660578063a4f0abf11461068b578063ab7c01a4146106b45761020f565b806375338fb41461053e5780637ad28c5114610567578063808b9327146105905780638da5cb5b146105b95761020f565b80632ded0fb51161019b5780634909ab9e1161016a5780634909ab9e1461047257806350e9b3981461049b5780636344e5c9146104b75780636849a331146104e2578063715018a6146105275761020f565b80632ded0fb5146103ba5780632f2ff15d146103e35780632f54bf6e1461040c57806336568abe146104495761020f565b80632330182f116101e25780632330182f146102bc578063248a9ca3146102e55780632c2b3cc6146103225780632d06177a1461034d5780632d860f40146103765761020f565b806301ffc9a71461021457806302fb0c5e14610251578063070f468d1461027c57806316b9995514610293575b600080fd5b34801561022057600080fd5b5061023b60048036038101906102369190613f4e565b6108a0565b6040516102489190613f96565b60405180910390f35b34801561025d57600080fd5b5061026661091a565b6040516102739190613f96565b60405180910390f35b34801561028857600080fd5b5061029161092d565b005b34801561029f57600080fd5b506102ba60048036038101906102b59190613fe7565b6109be565b005b3480156102c857600080fd5b506102e360048036038101906102de919061404a565b610b39565b005b3480156102f157600080fd5b5061030c60048036038101906103079190613fe7565b610e7d565b6040516103199190614099565b60405180910390f35b34801561032e57600080fd5b50610337610e9c565b60405161034491906140c3565b60405180910390f35b34801561035957600080fd5b50610374600480360381019061036f919061413c565b610ea2565b005b34801561038257600080fd5b5061039d60048036038101906103989190613fe7565b610ed7565b6040516103b19897969594939291906141ef565b60405180910390f35b3480156103c657600080fd5b506103e160048036038101906103dc919061426d565b6110dc565b005b3480156103ef57600080fd5b5061040a6004803603810190610405919061426d565b611395565b005b34801561041857600080fd5b50610433600480360381019061042e919061413c565b6113b6565b6040516104409190613f96565b60405180910390f35b34801561045557600080fd5b50610470600480360381019061046b919061426d565b6113f5565b005b34801561047e57600080fd5b50610499600480360381019061049491906143f3565b611478565b005b6104b560048036038101906104b0919061444f565b611964565b005b3480156104c357600080fd5b506104cc611f2b565b6040516104d991906140c3565b60405180910390f35b3480156104ee57600080fd5b5061050960048036038101906105049190613fe7565b611f31565b60405161051e999897969594939291906144ca565b60405180910390f35b34801561053357600080fd5b5061053c61214b565b005b34801561054a57600080fd5b506105656004803603810190610560919061404a565b61215f565b005b34801561057357600080fd5b5061058e60048036038101906105899190614557565b6124e2565b005b34801561059c57600080fd5b506105b760048036038101906105b29190613fe7565b612580565b005b3480156105c557600080fd5b506105ce612960565b6040516105db9190614584565b60405180910390f35b3480156105f057600080fd5b5061060b60048036038101906106069190613fe7565b61298a565b60405161061a93929190614646565b60405180910390f35b34801561062f57600080fd5b5061064a6004803603810190610645919061426d565b612a01565b6040516106579190613f96565b60405180910390f35b34801561066c57600080fd5b50610675612a6b565b6040516106829190614099565b60405180910390f35b34801561069757600080fd5b506106b260048036038101906106ad91906143f3565b612a72565b005b3480156106c057600080fd5b506106db60048036038101906106d69190613fe7565b612c43565b6040516106e891906146fc565b60405180910390f35b3480156106fd57600080fd5b506107186004803603810190610713919061413c565b612e6e565b005b34801561072657600080fd5b50610741600480360381019061073c919061474a565b612ea3565b005b34801561074f57600080fd5b5061076a6004803603810190610765919061426d565b612f3f565b60405161077791906140c3565b60405180910390f35b34801561078c57600080fd5b506107a760048036038101906107a29190614777565b613028565b005b3480156107b557600080fd5b506107d060048036038101906107cb9190613fe7565b613512565b6040516107dd91906146fc565b60405180910390f35b3480156107f257600080fd5b5061080d6004803603810190610808919061426d565b613747565b005b34801561081b57600080fd5b50610824613768565b6040516108319190614099565b60405180910390f35b34801561084657600080fd5b50610861600480360381019061085c919061413c565b61378c565b005b34801561086f57600080fd5b5061088a6004803603810190610885919061413c565b613836565b6040516108979190613f96565b60405180910390f35b60007f7965db0b000000000000000000000000000000000000000000000000000000007bffffffffffffffffffffffffffffffffffffffffffffffffffffffff1916827bffffffffffffffffffffffffffffffffffffffffffffffffffffffff19161480610913575061091282613869565b5b9050919050565b600560009054906101000a900460ff1681565b61093633613836565b610975576040517f08c379a000000000000000000000000000000000000000000000000000000000815260040161096c90614887565b60405180910390fd5b3373ffffffffffffffffffffffffffffffffffffffff166108fc479081150290604051600060405180830381858888f193505050501580156109bb573d6000803e3d6000fd5b50565b80600160038111156109d3576109d2614169565b5b6009600083815260200190815260200160002060009054906101000a900460ff166003811115610a0657610a05614169565b5b14610a46576040517f08c379a0000000000000000000000000000000000000000000000000000000008152600401610a3d906148f3565b60405180910390fd5b814260086000838152602001908152602001600020600701546008600084815260200190815260200160002060010154610a809190614942565b1115610ac1576040517f08c379a0000000000000000000000000000000000000000000000000000000008152600401610ab8906148f3565b60405180910390fd5b60036009600085815260200190815260200160002060006101000a81548160ff02191690836003811115610af857610af7614169565b5b02179055507f825d0863b13ffd24b85a8f9dfaa25c198f30bd39ca7928974507b4cdac588b4083604051610b2c9190614099565b60405180910390a1505050565b81600180811115610b4d57610b4c614169565b5b6002600083815260200190815260200160002060010160149054906101000a900460ff166001811115610b8357610b82614169565b5b14610bc3576040517f08c379a0000000000000000000000000000000000000000000000000000000008152600401610bba906149c2565b60405180910390fd5b60008211610c06576040517f08c379a0000000000000000000000000000000000000000000000000000000008152600401610bfd90614a2e565b60405180910390fd5b60006002600085815260200190815260200160002060000160009054906101000a900473ffffffffffffffffffffffffffffffffffffffff1690508073ffffffffffffffffffffffffffffffffffffffff1663dd62ed3e33306040518363ffffffff1660e01b8152600401610c7c929190614a4e565b602060405180830381865afa158015610c99573d6000803e3d6000fd5b505050506040513d601f19601f82011682018060405250810190610cbd9190614a8c565b831115610cff576040517f08c379a0000000000000000000000000000000000000000000000000000000008152600401610cf690614b05565b60405180910390fd5b8073ffffffffffffffffffffffffffffffffffffffff166323b872dd3330866040518463ffffffff1660e01b8152600401610d3c93929190614b25565b6020604051808303816000875af1158015610d5b573d6000803e3d6000fd5b505050506040513d601f19601f82011682018060405250810190610d7f9190614b71565b5060006002600086815260200190815260200160002060020160003373ffffffffffffffffffffffffffffffffffffffff1673ffffffffffffffffffffffffffffffffffffffff1681526020019081526020016000205490508381610de49190614942565b6002600087815260200190815260200160002060020160003373ffffffffffffffffffffffffffffffffffffffff1673ffffffffffffffffffffffffffffffffffffffff168152602001908152602001600020819055507fe3d44428627675f176f19f575c29dae0b7aad0750eafb759458b6e23e5768a22853386604051610e6e93929190614b9e565b60405180910390a15050505050565b6000806000838152602001908152602001600020600101549050919050565b60045481565b610eaa6138d3565b610ed47f241ecf16d79d0f8dbfb92cbc07fe17840425976cf0667f022fe9877caa831b0882611395565b50565b6000806000806000806000806000600860008b8152602001908152602001600020604051806101000160405290816000820154815260200160018201548152602001600282015481526020016003820160009054906101000a900473ffffffffffffffffffffffffffffffffffffffff1673ffffffffffffffffffffffffffffffffffffffff1673ffffffffffffffffffffffffffffffffffffffff1681526020016004820160009054906101000a900473ffffffffffffffffffffffffffffffffffffffff1673ffffffffffffffffffffffffffffffffffffffff1673ffffffffffffffffffffffffffffffffffffffff16815260200160058201548152602001600682018054610fe890614c04565b80601f016020809104026020016040519081016040528092919081815260200182805461101490614c04565b80156110615780601f1061103657610100808354040283529160200191611061565b820191906000526020600020905b81548152906001019060200180831161104457829003601f168201915b5050505050815260200160078201548152505090506000600960008c815260200190815260200160002060009054906101000a900460ff16905080826000015183602001518460400151856060015186608001518760a001518860e00151995099509950995099509950995099505050919395975091939597565b6110e533613836565b611124576040517f08c379a000000000000000000000000000000000000000000000000000000000815260040161111b90614887565b60405180910390fd5b600073ffffffffffffffffffffffffffffffffffffffff168173ffffffffffffffffffffffffffffffffffffffff1603611193576040517f08c379a000000000000000000000000000000000000000000000000000000000815260040161118a90614a2e565b60405180910390fd5b60008190506000600230846040516020016111af929190614c7d565b6040516020818303038152906040526040516111cb9190614ce5565b602060405180830381855afa1580156111e8573d6000803e3d6000fd5b5050506040513d601f19601f8201168201806040525081019061120b9190614d11565b905083811461121957600080fd5b6000600181111561122d5761122c614169565b5b6002600086815260200190815260200160002060010160149054906101000a900460ff16600181111561126357611262614169565b5b1461126d57600080fd5b816002600086815260200190815260200160002060000160006101000a81548173ffffffffffffffffffffffffffffffffffffffff021916908373ffffffffffffffffffffffffffffffffffffffff160217905550826002600086815260200190815260200160002060010160006101000a81548173ffffffffffffffffffffffffffffffffffffffff021916908373ffffffffffffffffffffffffffffffffffffffff16021790555060016002600086815260200190815260200160002060010160146101000a81548160ff0219169083600181111561135157611350614169565b5b02179055507f5480718cbffecdb87b0dda598e1ec366b45a645327b3d98494a91e9594981f048484604051611387929190614d3e565b60405180910390a150505050565b61139e82610e7d565b6113a781613951565b6113b18383613965565b505050565b60008173ffffffffffffffffffffffffffffffffffffffff166113d7612960565b73ffffffffffffffffffffffffffffffffffffffff16149050919050565b6113fd613a45565b73ffffffffffffffffffffffffffffffffffffffff168173ffffffffffffffffffffffffffffffffffffffff161461146a576040517f08c379a000000000000000000000000000000000000000000000000000000000815260040161146190614dd9565b60405180910390fd5b6114748282613a4d565b5050565b816001600381111561148d5761148c614169565b5b6009600083815260200190815260200160002060009054906101000a900460ff1660038111156114c0576114bf614169565b5b14611500576040517f08c379a00000000000000000000000000000000000000000000000000000000081526004016114f7906148f3565b60405180910390fd5b82826002816040516115129190614ce5565b602060405180830381855afa15801561152f573d6000803e3d6000fd5b5050506040513d601f19601f820116820180604052508101906115529190614d11565b6008600084815260200190815260200160002060050154146115a9576040517f08c379a00000000000000000000000000000000000000000000000000000000081526004016115a0906148f3565b60405180910390fd5b600060086000878152602001908152602001600020604051806101000160405290816000820154815260200160018201548152602001600282015481526020016003820160009054906101000a900473ffffffffffffffffffffffffffffffffffffffff1673ffffffffffffffffffffffffffffffffffffffff1673ffffffffffffffffffffffffffffffffffffffff1681526020016004820160009054906101000a900473ffffffffffffffffffffffffffffffffffffffff1673ffffffffffffffffffffffffffffffffffffffff1673ffffffffffffffffffffffffffffffffffffffff168152602001600582015481526020016006820180546116ae90614c04565b80601f01602080910402602001604051908101604052809291908181526020018280546116da90614c04565b80156117275780601f106116fc57610100808354040283529160200191611727565b820191906000526020600020905b81548152906001019060200180831161170a57829003601f168201915b5050505050815260200160078201548152505090506000600260008360000151815260200190815260200160002060000160009054906101000a900473ffffffffffffffffffffffffffffffffffffffff1690508073ffffffffffffffffffffffffffffffffffffffff166370a08231306040518263ffffffff1660e01b81526004016117b49190614584565b602060405180830381865afa1580156117d1573d6000803e3d6000fd5b505050506040513d601f19601f820116820180604052508101906117f59190614a8c565b8260400151111561183b576040517f08c379a000000000000000000000000000000000000000000000000000000000815260040161183290614b05565b60405180910390fd5b8560086000898152602001908152602001600020600601908161185e9190614f9b565b5060026009600089815260200190815260200160002060006101000a81548160ff0219169083600381111561189657611895614169565b5b02179055508073ffffffffffffffffffffffffffffffffffffffff1663a9059cbb836080015184604001516040518363ffffffff1660e01b81526004016118de92919061506d565b6020604051808303816000875af11580156118fd573d6000803e3d6000fd5b505050506040513d601f19601f820116820180604052508101906119219190614b71565b507f95ba8896cab059cc82657df1929eaf97d25375ab7a1d7bed1531299395d78b188787604051611953929190615096565b60405180910390a150505050505050565b836000600381111561197957611978614169565b5b6007600083815260200190815260200160002060009054906101000a900460ff1660038111156119ac576119ab614169565b5b146119ec576040517f08c379a00000000000000000000000000000000000000000000000000000000081526004016119e390615112565b60405180910390fd5b85600180811115611a00576119ff614169565b5b6002600083815260200190815260200160002060010160149054906101000a900460ff166001811115611a3657611a35614169565b5b14611a76576040517f08c379a0000000000000000000000000000000000000000000000000000000008152600401611a6d906149c2565b60405180910390fd5b600560009054906101000a900460ff16611ac5576040517f08c379a0000000000000000000000000000000000000000000000000000000008152600401611abc906149c2565b60405180910390fd5b600073ffffffffffffffffffffffffffffffffffffffff168473ffffffffffffffffffffffffffffffffffffffff1603611b34576040517f08c379a0000000000000000000000000000000000000000000000000000000008152600401611b2b90614a2e565b60405180910390fd5b633b9aca003411611b7a576040517f08c379a0000000000000000000000000000000000000000000000000000000008152600401611b7190614a2e565b60405180910390fd5b60006002600089815260200190815260200160002060000160009054906101000a900473ffffffffffffffffffffffffffffffffffffffff1690508073ffffffffffffffffffffffffffffffffffffffff1663dd62ed3e33306040518363ffffffff1660e01b8152600401611bf0929190614a4e565b602060405180830381865afa158015611c0d573d6000803e3d6000fd5b505050506040513d601f19601f82011682018060405250810190611c319190614a8c565b861115611c73576040517f08c379a0000000000000000000000000000000000000000000000000000000008152600401611c6a90614a2e565b60405180910390fd5b8073ffffffffffffffffffffffffffffffffffffffff166323b872dd3330896040518463ffffffff1660e01b8152600401611cb093929190614b25565b6020604051808303816000875af1158015611ccf573d6000803e3d6000fd5b505050506040513d601f19601f82011682018060405250810190611cf39190614b71565b5060006040518061012001604052808a815260200160035481526020018881526020013481526020013373ffffffffffffffffffffffffffffffffffffffff1681526020018773ffffffffffffffffffffffffffffffffffffffff168152602001868152602001600067ffffffffffffffff811115611d7557611d746142c8565b5b6040519080825280601f01601f191660200182016040528015611da75781602001600182028036833780820191505090505b50815260200142815250905080600660008a81526020019081526020016000206000820151816000015560208201518160010155604082015181600201556060820151816003015560808201518160040160006101000a81548173ffffffffffffffffffffffffffffffffffffffff021916908373ffffffffffffffffffffffffffffffffffffffff16021790555060a08201518160050160006101000a81548173ffffffffffffffffffffffffffffffffffffffff021916908373ffffffffffffffffffffffffffffffffffffffff16021790555060c0820151816006015560e0820151816007019081611e9c9190614f9b565b5061010082015181600801559050506001600760008a815260200190815260200160002060006101000a81548160ff02191690836003811115611ee257611ee1614169565b5b02179055507f5faaa1cf928498f8b434c97cb1f6d72e6b65923d6fe2888feb009e3d5fe8dd288886604051611f18929190615132565b60405180910390a1505050505050505050565b60035481565b600080600080600080600080600080600660008c815260200190815260200160002060405180610120016040529081600082015481526020016001820154815260200160028201548152602001600382015481526020016004820160009054906101000a900473ffffffffffffffffffffffffffffffffffffffff1673ffffffffffffffffffffffffffffffffffffffff1673ffffffffffffffffffffffffffffffffffffffff1681526020016005820160009054906101000a900473ffffffffffffffffffffffffffffffffffffffff1673ffffffffffffffffffffffffffffffffffffffff1673ffffffffffffffffffffffffffffffffffffffff1681526020016006820154815260200160078201805461204d90614c04565b80601f016020809104026020016040519081016040528092919081815260200182805461207990614c04565b80156120c65780601f1061209b576101008083540402835291602001916120c6565b820191906000526020600020905b8154815290600101906020018083116120a957829003601f168201915b5050505050815260200160088201548152505090506000600760008d815260200190815260200160002060009054906101000a900460ff16905080826000015183602001518460400151856060015186608001518760a001518860c001518961010001519a509a509a509a509a509a509a509a509a5050509193959799909294969850565b6121536138d3565b61215d6000613b2e565b565b8160018081111561217357612172614169565b5b6002600083815260200190815260200160002060010160149054906101000a900460ff1660018111156121a9576121a8614169565b5b146121e9576040517f08c379a00000000000000000000000000000000000000000000000000000000081526004016121e0906149c2565b60405180910390fd5b6000821161222c576040517f08c379a000000000000000000000000000000000000000000000000000000000815260040161222390614a2e565b60405180910390fd5b60006002600085815260200190815260200160002060000160009054906101000a900473ffffffffffffffffffffffffffffffffffffffff16905060006002600086815260200190815260200160002060020160003373ffffffffffffffffffffffffffffffffffffffff1673ffffffffffffffffffffffffffffffffffffffff16815260200190815260200160002054905080841115612302576040517f08c379a00000000000000000000000000000000000000000000000000000000081526004016122f990614b05565b60405180910390fd5b8173ffffffffffffffffffffffffffffffffffffffff166370a08231306040518263ffffffff1660e01b815260040161233b9190614584565b602060405180830381865afa158015612358573d6000803e3d6000fd5b505050506040513d601f19601f8201168201806040525081019061237c9190614a8c565b8411156123be576040517f08c379a00000000000000000000000000000000000000000000000000000000081526004016123b590614b05565b60405180910390fd5b83816123ca919061515b565b6002600087815260200190815260200160002060020160003373ffffffffffffffffffffffffffffffffffffffff1673ffffffffffffffffffffffffffffffffffffffff168152602001908152602001600020819055508173ffffffffffffffffffffffffffffffffffffffff1663a9059cbb33866040518363ffffffff1660e01b815260040161245c92919061506d565b6020604051808303816000875af115801561247b573d6000803e3d6000fd5b505050506040513d601f19601f8201168201806040525081019061249f9190614b71565b507f09a6a33bc7e44eb8dcc8288998d477be28ffdd060f80f9e096b5cd5544cd4dcd8533866040516124d393929190614b9e565b60405180910390a15050505050565b6124eb33613836565b61252a576040517f08c379a000000000000000000000000000000000000000000000000000000000815260040161252190614887565b60405180910390fd5b600281612537919061518f565b600381905550806004819055507f64728aea34ac309b1c81424cc427d789a01aa85691b27ebfa0be5ae8c322ca7360035460405161257591906140c3565b60405180910390a150565b806001600381111561259557612594614169565b5b6007600083815260200190815260200160002060009054906101000a900460ff1660038111156125c8576125c7614169565b5b14612608576040517f08c379a00000000000000000000000000000000000000000000000000000000081526004016125ff90615112565b60405180910390fd5b8142600660008381526020019081526020016000206008015460066000848152602001908152602001600020600101546126429190614942565b1115612683576040517f08c379a000000000000000000000000000000000000000000000000000000000815260040161267a90615112565b60405180910390fd5b60006006600085815260200190815260200160002060405180610120016040529081600082015481526020016001820154815260200160028201548152602001600382015481526020016004820160009054906101000a900473ffffffffffffffffffffffffffffffffffffffff1673ffffffffffffffffffffffffffffffffffffffff1673ffffffffffffffffffffffffffffffffffffffff1681526020016005820160009054906101000a900473ffffffffffffffffffffffffffffffffffffffff1673ffffffffffffffffffffffffffffffffffffffff1673ffffffffffffffffffffffffffffffffffffffff1681526020016006820154815260200160078201805461279290614c04565b80601f01602080910402602001604051908101604052809291908181526020018280546127be90614c04565b801561280b5780601f106127e05761010080835404028352916020019161280b565b820191906000526020600020905b8154815290600101906020018083116127ee57829003601f168201915b50505050508152602001600882015481525050905060036007600086815260200190815260200160002060006101000a81548160ff0219169083600381111561285757612856614169565b5b02179055506000600260008360000151815260200190815260200160002060000160009054906101000a900473ffffffffffffffffffffffffffffffffffffffff1690508073ffffffffffffffffffffffffffffffffffffffff1663a9059cbb836080015184604001516040518363ffffffff1660e01b81526004016128de92919061506d565b6020604051808303816000875af11580156128fd573d6000803e3d6000fd5b505050506040513d601f19601f820116820180604052508101906129219190614b71565b507f106871623781e69dca1d81068bb94c2b7cb78425866dd9a3afbe299ddb2bb869856040516129519190614099565b60405180910390a15050505050565b6000600160009054906101000a900473ffffffffffffffffffffffffffffffffffffffff16905090565b60026020528060005260406000206000915090508060000160009054906101000a900473ffffffffffffffffffffffffffffffffffffffff16908060010160009054906101000a900473ffffffffffffffffffffffffffffffffffffffff16908060010160149054906101000a900460ff16905083565b600080600084815260200190815260200160002060000160008373ffffffffffffffffffffffffffffffffffffffff1673ffffffffffffffffffffffffffffffffffffffff16815260200190815260200160002060009054906101000a900460ff16905092915050565b6000801b81565b8160016003811115612a8757612a86614169565b5b6007600083815260200190815260200160002060009054906101000a900460ff166003811115612aba57612ab9614169565b5b14612afa576040517f08c379a0000000000000000000000000000000000000000000000000000000008152600401612af190615112565b60405180910390fd5b8282600281604051612b0c9190614ce5565b602060405180830381855afa158015612b29573d6000803e3d6000fd5b5050506040513d601f19601f82011682018060405250810190612b4c9190614d11565b600660008481526020019081526020016000206006015414612ba3576040517f08c379a0000000000000000000000000000000000000000000000000000000008152600401612b9a90615112565b60405180910390fd5b83600660008781526020019081526020016000206007019081612bc69190614f9b565b5060026007600087815260200190815260200160002060006101000a81548160ff02191690836003811115612bfe57612bfd614169565b5b02179055507f1477d37ce3a7a9aa2840d29808113cfbd3c2cc73a0d080110430dfa472d8772c8585604051612c34929190615096565b60405180910390a15050505050565b60608160026003811115612c5a57612c59614169565b5b6009600083815260200190815260200160002060009054906101000a900460ff166003811115612c8d57612c8c614169565b5b14612ccd576040517f08c379a0000000000000000000000000000000000000000000000000000000008152600401612cc4906148f3565b60405180910390fd5b600060086000858152602001908152602001600020604051806101000160405290816000820154815260200160018201548152602001600282015481526020016003820160009054906101000a900473ffffffffffffffffffffffffffffffffffffffff1673ffffffffffffffffffffffffffffffffffffffff1673ffffffffffffffffffffffffffffffffffffffff1681526020016004820160009054906101000a900473ffffffffffffffffffffffffffffffffffffffff1673ffffffffffffffffffffffffffffffffffffffff1673ffffffffffffffffffffffffffffffffffffffff16815260200160058201548152602001600682018054612dd290614c04565b80601f0160208091040260200160405190810160405280929190818152602001828054612dfe90614c04565b8015612e4b5780601f10612e2057610100808354040283529160200191612e4b565b820191906000526020600020905b815481529060010190602001808311612e2e57829003601f168201915b5050505050815260200160078201548152505090508060c0015192505050919050565b612e766138d3565b612ea07f241ecf16d79d0f8dbfb92cbc07fe17840425976cf0667f022fe9877caa831b0882613747565b50565b612eac33613836565b612eeb576040517f08c379a0000000000000000000000000000000000000000000000000000000008152600401612ee290614887565b60405180910390fd5b80600560006101000a81548160ff0219169083151502179055507fb645d225a5ad2878b2d9c0a7cf22662632da0cf5a7dbd87a9186d7e2ad9eca3c81604051612f349190613f96565b60405180910390a150565b600082600180811115612f5557612f54614169565b5b6002600083815260200190815260200160002060010160149054906101000a900460ff166001811115612f8b57612f8a614169565b5b14612fcb576040517f08c379a0000000000000000000000000000000000000000000000000000000008152600401612fc2906149c2565b60405180910390fd5b6002600085815260200190815260200160002060020160008473ffffffffffffffffffffffffffffffffffffffff1673ffffffffffffffffffffffffffffffffffffffff1681526020019081526020016000205491505092915050565b61303133613836565b613070576040517f08c379a000000000000000000000000000000000000000000000000000000000815260040161306790614887565b60405180910390fd5b846000600381111561308557613084614169565b5b6009600083815260200190815260200160002060009054906101000a900460ff1660038111156130b8576130b7614169565b5b146130f8576040517f08c379a00000000000000000000000000000000000000000000000000000000081526004016130ef906148f3565b60405180910390fd5b8660018081111561310c5761310b614169565b5b6002600083815260200190815260200160002060010160149054906101000a900460ff16600181111561314257613141614169565b5b14613182576040517f08c379a0000000000000000000000000000000000000000000000000000000008152600401613179906149c2565b60405180910390fd5b600073ffffffffffffffffffffffffffffffffffffffff168573ffffffffffffffffffffffffffffffffffffffff16036131bb57600080fd5b600073ffffffffffffffffffffffffffffffffffffffff168473ffffffffffffffffffffffffffffffffffffffff16036131f457600080fd5b6000600260008a815260200190815260200160002060000160009054906101000a900473ffffffffffffffffffffffffffffffffffffffff1690508073ffffffffffffffffffffffffffffffffffffffff166370a08231306040518263ffffffff1660e01b81526004016132689190614584565b602060405180830381865afa158015613285573d6000803e3d6000fd5b505050506040513d601f19601f820116820180604052508101906132a99190614a8c565b8711156132eb576040517f08c379a00000000000000000000000000000000000000000000000000000000081526004016132e290614a2e565b60405180910390fd5b60006040518061010001604052808b815260200160045481526020018981526020018873ffffffffffffffffffffffffffffffffffffffff1681526020018773ffffffffffffffffffffffffffffffffffffffff168152602001868152602001600067ffffffffffffffff811115613366576133656142c8565b5b6040519080825280601f01601f1916602001820160405280156133985781602001600182028036833780820191505090505b50815260200142815250905080600860008b815260200190815260200160002060008201518160000155602082015181600101556040820151816002015560608201518160030160006101000a81548173ffffffffffffffffffffffffffffffffffffffff021916908373ffffffffffffffffffffffffffffffffffffffff16021790555060808201518160040160006101000a81548173ffffffffffffffffffffffffffffffffffffffff021916908373ffffffffffffffffffffffffffffffffffffffff16021790555060a0820151816005015560c08201518160060190816134839190614f9b565b5060e082015181600701559050506001600960008b815260200190815260200160002060006101000a81548160ff021916908360038111156134c8576134c7614169565b5b02179055507fc49c6a2e27722bfd7cff78433c963ac6ae93291acd415ce5009c1202c899bf8a89866040516134fe929190615132565b60405180910390a150505050505050505050565b6060816002600381111561352957613528614169565b5b6007600083815260200190815260200160002060009054906101000a900460ff16600381111561355c5761355b614169565b5b1461359c576040517f08c379a000000000000000000000000000000000000000000000000000000000815260040161359390615112565b60405180910390fd5b60006006600085815260200190815260200160002060405180610120016040529081600082015481526020016001820154815260200160028201548152602001600382015481526020016004820160009054906101000a900473ffffffffffffffffffffffffffffffffffffffff1673ffffffffffffffffffffffffffffffffffffffff1673ffffffffffffffffffffffffffffffffffffffff1681526020016005820160009054906101000a900473ffffffffffffffffffffffffffffffffffffffff1673ffffffffffffffffffffffffffffffffffffffff1673ffffffffffffffffffffffffffffffffffffffff168152602001600682015481526020016007820180546136ab90614c04565b80601f01602080910402602001604051908101604052809291908181526020018280546136d790614c04565b80156137245780601f106136f957610100808354040283529160200191613724565b820191906000526020600020905b81548152906001019060200180831161370757829003601f168201915b5050505050815260200160088201548152505090508060e0015192505050919050565b61375082610e7d565b61375981613951565b6137638383613a4d565b505050565b7f241ecf16d79d0f8dbfb92cbc07fe17840425976cf0667f022fe9877caa831b0881565b6137946138d3565b600073ffffffffffffffffffffffffffffffffffffffff168173ffffffffffffffffffffffffffffffffffffffff1603613803576040517f08c379a00000000000000000000000000000000000000000000000000000000081526004016137fa90615243565b60405180910390fd5b600061380d612960565b905061381882613b2e565b6138256000801b82613a4d565b6138326000801b83613965565b5050565b60006138627f241ecf16d79d0f8dbfb92cbc07fe17840425976cf0667f022fe9877caa831b0883612a01565b9050919050565b60007f01ffc9a7000000000000000000000000000000000000000000000000000000007bffffffffffffffffffffffffffffffffffffffffffffffffffffffff1916827bffffffffffffffffffffffffffffffffffffffffffffffffffffffff1916149050919050565b6138db613a45565b73ffffffffffffffffffffffffffffffffffffffff166138f9612960565b73ffffffffffffffffffffffffffffffffffffffff161461394f576040517f08c379a0000000000000000000000000000000000000000000000000000000008152600401613946906152af565b60405180910390fd5b565b6139628161395d613a45565b613bf4565b50565b61396f8282612a01565b613a4157600160008084815260200190815260200160002060000160008373ffffffffffffffffffffffffffffffffffffffff1673ffffffffffffffffffffffffffffffffffffffff16815260200190815260200160002060006101000a81548160ff0219169083151502179055506139e6613a45565b73ffffffffffffffffffffffffffffffffffffffff168173ffffffffffffffffffffffffffffffffffffffff16837f2f8788117e7eff1d82e926ec794901d17c78024a50270940304540a733656f0d60405160405180910390a45b5050565b600033905090565b613a578282612a01565b15613b2a57600080600084815260200190815260200160002060000160008373ffffffffffffffffffffffffffffffffffffffff1673ffffffffffffffffffffffffffffffffffffffff16815260200190815260200160002060006101000a81548160ff021916908315150217905550613acf613a45565b73ffffffffffffffffffffffffffffffffffffffff168173ffffffffffffffffffffffffffffffffffffffff16837ff6391f5c32d9c69d2a47ea670b442974b53935d1edc7fd64eb21e047a839171b60405160405180910390a45b5050565b6000600160009054906101000a900473ffffffffffffffffffffffffffffffffffffffff16905081600160006101000a81548173ffffffffffffffffffffffffffffffffffffffff021916908373ffffffffffffffffffffffffffffffffffffffff1602179055508173ffffffffffffffffffffffffffffffffffffffff168173ffffffffffffffffffffffffffffffffffffffff167f8be0079c531659141344cd1fd0a4f28419497f9722a3daafe3b4186f6b6457e060405160405180910390a35050565b613bfe8282612a01565b613c7557613c0b81613c79565b613c198360001c6020613ca6565b604051602001613c2a9291906153ae565b6040516020818303038152906040526040517f08c379a0000000000000000000000000000000000000000000000000000000008152600401613c6c9190615421565b60405180910390fd5b5050565b6060613c9f8273ffffffffffffffffffffffffffffffffffffffff16601460ff16613ca6565b9050919050565b606060006002836002613cb9919061518f565b613cc39190614942565b67ffffffffffffffff811115613cdc57613cdb6142c8565b5b6040519080825280601f01601f191660200182016040528015613d0e5781602001600182028036833780820191505090505b5090507f300000000000000000000000000000000000000000000000000000000000000081600081518110613d4657613d45615443565b5b60200101907effffffffffffffffffffffffffffffffffffffffffffffffffffffffffffff1916908160001a9053507f780000000000000000000000000000000000000000000000000000000000000081600181518110613daa57613da9615443565b5b60200101907effffffffffffffffffffffffffffffffffffffffffffffffffffffffffffff1916908160001a90535060006001846002613dea919061518f565b613df49190614942565b90505b6001811115613e94577f3031323334353637383961626364656600000000000000000000000000000000600f861660108110613e3657613e35615443565b5b1a60f81b828281518110613e4d57613e4c615443565b5b60200101907effffffffffffffffffffffffffffffffffffffffffffffffffffffffffffff1916908160001a905350600485901c945080613e8d90615472565b9050613df7565b5060008414613ed8576040517f08c379a0000000000000000000000000000000000000000000000000000000008152600401613ecf906154e7565b60405180910390fd5b8091505092915050565b6000604051905090565b600080fd5b600080fd5b60007fffffffff0000000000000000000000000000000000000000000000000000000082169050919050565b613f2b81613ef6565b8114613f3657600080fd5b50565b600081359050613f4881613f22565b92915050565b600060208284031215613f6457613f63613eec565b5b6000613f7284828501613f39565b91505092915050565b60008115159050919050565b613f9081613f7b565b82525050565b6000602082019050613fab6000830184613f87565b92915050565b6000819050919050565b613fc481613fb1565b8114613fcf57600080fd5b50565b600081359050613fe181613fbb565b92915050565b600060208284031215613ffd57613ffc613eec565b5b600061400b84828501613fd2565b91505092915050565b6000819050919050565b61402781614014565b811461403257600080fd5b50565b6000813590506140448161401e565b92915050565b6000806040838503121561406157614060613eec565b5b600061406f85828601613fd2565b925050602061408085828601614035565b9150509250929050565b61409381613fb1565b82525050565b60006020820190506140ae600083018461408a565b92915050565b6140bd81614014565b82525050565b60006020820190506140d860008301846140b4565b92915050565b600073ffffffffffffffffffffffffffffffffffffffff82169050919050565b6000614109826140de565b9050919050565b614119816140fe565b811461412457600080fd5b50565b60008135905061413681614110565b92915050565b60006020828403121561415257614151613eec565b5b600061416084828501614127565b91505092915050565b7f4e487b7100000000000000000000000000000000000000000000000000000000600052602160045260246000fd5b600481106141a9576141a8614169565b5b50565b60008190506141ba82614198565b919050565b60006141ca826141ac565b9050919050565b6141da816141bf565b82525050565b6141e9816140fe565b82525050565b600061010082019050614205600083018b6141d1565b614212602083018a61408a565b61421f60408301896140b4565b61422c60608301886140b4565b61423960808301876141e0565b61424660a08301866141e0565b61425360c083018561408a565b61426060e08301846140b4565b9998505050505050505050565b6000806040838503121561428457614283613eec565b5b600061429285828601613fd2565b92505060206142a385828601614127565b9150509250929050565b600080fd5b600080fd5b6000601f19601f8301169050919050565b7f4e487b7100000000000000000000000000000000000000000000000000000000600052604160045260246000fd5b614300826142b7565b810181811067ffffffffffffffff8211171561431f5761431e6142c8565b5b80604052505050565b6000614332613ee2565b905061433e82826142f7565b919050565b600067ffffffffffffffff82111561435e5761435d6142c8565b5b614367826142b7565b9050602081019050919050565b82818337600083830152505050565b600061439661439184614343565b614328565b9050828152602081018484840111156143b2576143b16142b2565b5b6143bd848285614374565b509392505050565b600082601f8301126143da576143d96142ad565b5b81356143ea848260208601614383565b91505092915050565b6000806040838503121561440a57614409613eec565b5b600061441885828601613fd2565b925050602083013567ffffffffffffffff81111561443957614438613ef1565b5b614445858286016143c5565b9150509250929050565b600080600080600060a0868803121561446b5761446a613eec565b5b600061447988828901613fd2565b955050602061448a88828901613fd2565b945050604061449b88828901614035565b93505060606144ac88828901614127565b92505060806144bd88828901613fd2565b9150509295509295909350565b6000610120820190506144e0600083018c6141d1565b6144ed602083018b61408a565b6144fa604083018a6140b4565b61450760608301896140b4565b61451460808301886140b4565b61452160a08301876141e0565b61452e60c08301866141e0565b61453b60e083018561408a565b6145496101008301846140b4565b9a9950505050505050505050565b60006020828403121561456d5761456c613eec565b5b600061457b84828501614035565b91505092915050565b600060208201905061459960008301846141e0565b92915050565b6000819050919050565b60006145c46145bf6145ba846140de565b61459f565b6140de565b9050919050565b60006145d6826145a9565b9050919050565b60006145e8826145cb565b9050919050565b6145f8816145dd565b82525050565b6002811061460f5761460e614169565b5b50565b6000819050614620826145fe565b919050565b600061463082614612565b9050919050565b61464081614625565b82525050565b600060608201905061465b60008301866145ef565b61466860208301856141e0565b6146756040830184614637565b949350505050565b600081519050919050565b600082825260208201905092915050565b60005b838110156146b757808201518184015260208101905061469c565b60008484015250505050565b60006146ce8261467d565b6146d88185614688565b93506146e8818560208601614699565b6146f1816142b7565b840191505092915050565b6000602082019050818103600083015261471681846146c3565b905092915050565b61472781613f7b565b811461473257600080fd5b50565b6000813590506147448161471e565b92915050565b6000602082840312156147605761475f613eec565b5b600061476e84828501614735565b91505092915050565b60008060008060008060c0878903121561479457614793613eec565b5b60006147a289828a01613fd2565b96505060206147b389828a01613fd2565b95505060406147c489828a01614035565b94505060606147d589828a01614127565b93505060806147e689828a01614127565b92505060a06147f789828a01613fd2565b9150509295509295509295565b600082825260208201905092915050565b7f4f6e6c79206d616e61676572732063616e2063616c6c2e7c4e4f545f4d414e4160008201527f4745525f524f4c4c000000000000000000000000000000000000000000000000602082015250565b6000614871602883614804565b915061487c82614815565b604082019050919050565b600060208201905081810360008301526148a081614864565b9050919050565b7f4530303200000000000000000000000000000000000000000000000000000000600082015250565b60006148dd600483614804565b91506148e8826148a7565b602082019050919050565b6000602082019050818103600083015261490c816148d0565b9050919050565b7f4e487b7100000000000000000000000000000000000000000000000000000000600052601160045260246000fd5b600061494d82614014565b915061495883614014565b92508282019050808211156149705761496f614913565b5b92915050565b7f4530303400000000000000000000000000000000000000000000000000000000600082015250565b60006149ac600483614804565b91506149b782614976565b602082019050919050565b600060208201905081810360008301526149db8161499f565b9050919050565b7f4530303300000000000000000000000000000000000000000000000000000000600082015250565b6000614a18600483614804565b9150614a23826149e2565b602082019050919050565b60006020820190508181036000830152614a4781614a0b565b9050919050565b6000604082019050614a6360008301856141e0565b614a7060208301846141e0565b9392505050565b600081519050614a868161401e565b92915050565b600060208284031215614aa257614aa1613eec565b5b6000614ab084828501614a77565b91505092915050565b7f4530303500000000000000000000000000000000000000000000000000000000600082015250565b6000614aef600483614804565b9150614afa82614ab9565b602082019050919050565b60006020820190508181036000830152614b1e81614ae2565b9050919050565b6000606082019050614b3a60008301866141e0565b614b4760208301856141e0565b614b5460408301846140b4565b949350505050565b600081519050614b6b8161471e565b92915050565b600060208284031215614b8757614b86613eec565b5b6000614b9584828501614b5c565b91505092915050565b6000606082019050614bb3600083018661408a565b614bc060208301856141e0565b614bcd60408301846140b4565b949350505050565b7f4e487b7100000000000000000000000000000000000000000000000000000000600052602260045260246000fd5b60006002820490506001821680614c1c57607f821691505b602082108103614c2f57614c2e614bd5565b5b50919050565b60008160601b9050919050565b6000614c4d82614c35565b9050919050565b6000614c5f82614c42565b9050919050565b614c77614c72826140fe565b614c54565b82525050565b6000614c898285614c66565b601482019150614c998284614c66565b6014820191508190509392505050565b600081905092915050565b6000614cbf8261467d565b614cc98185614ca9565b9350614cd9818560208601614699565b80840191505092915050565b6000614cf18284614cb4565b915081905092915050565b600081519050614d0b81613fbb565b92915050565b600060208284031215614d2757614d26613eec565b5b6000614d3584828501614cfc565b91505092915050565b6000604082019050614d53600083018561408a565b614d6060208301846141e0565b9392505050565b7f416363657373436f6e74726f6c3a2063616e206f6e6c792072656e6f756e636560008201527f20726f6c657320666f722073656c660000000000000000000000000000000000602082015250565b6000614dc3602f83614804565b9150614dce82614d67565b604082019050919050565b60006020820190508181036000830152614df281614db6565b9050919050565b60008190508160005260206000209050919050565b60006020601f8301049050919050565b600082821b905092915050565b600060088302614e5b7fffffffffffffffffffffffffffffffffffffffffffffffffffffffffffffffff82614e1e565b614e658683614e1e565b95508019841693508086168417925050509392505050565b6000614e98614e93614e8e84614014565b61459f565b614014565b9050919050565b6000819050919050565b614eb283614e7d565b614ec6614ebe82614e9f565b848454614e2b565b825550505050565b600090565b614edb614ece565b614ee6818484614ea9565b505050565b5b81811015614f0a57614eff600082614ed3565b600181019050614eec565b5050565b601f821115614f4f57614f2081614df9565b614f2984614e0e565b81016020851015614f38578190505b614f4c614f4485614e0e565b830182614eeb565b50505b505050565b600082821c905092915050565b6000614f7260001984600802614f54565b1980831691505092915050565b6000614f8b8383614f61565b9150826002028217905092915050565b614fa48261467d565b67ffffffffffffffff811115614fbd57614fbc6142c8565b5b614fc78254614c04565b614fd2828285614f0e565b600060209050601f8311600181146150055760008415614ff3578287015190505b614ffd8582614f7f565b865550615065565b601f19841661501386614df9565b60005b8281101561503b57848901518255600182019150602085019450602081019050615016565b868310156150585784890151615054601f891682614f61565b8355505b6001600288020188555050505b505050505050565b600060408201905061508260008301856141e0565b61508f60208301846140b4565b9392505050565b60006040820190506150ab600083018561408a565b81810360208301526150bd81846146c3565b90509392505050565b7f4530303100000000000000000000000000000000000000000000000000000000600082015250565b60006150fc600483614804565b9150615107826150c6565b602082019050919050565b6000602082019050818103600083015261512b816150ef565b9050919050565b6000604082019050615147600083018561408a565b615154602083018461408a565b9392505050565b600061516682614014565b915061517183614014565b925082820390508181111561518957615188614913565b5b92915050565b600061519a82614014565b91506151a583614014565b92508282026151b381614014565b915082820484148315176151ca576151c9614913565b5b5092915050565b7f4f776e61626c653a206e6577206f776e657220697320746865207a65726f206160008201527f6464726573730000000000000000000000000000000000000000000000000000602082015250565b600061522d602683614804565b9150615238826151d1565b604082019050919050565b6000602082019050818103600083015261525c81615220565b9050919050565b7f4f776e61626c653a2063616c6c6572206973206e6f7420746865206f776e6572600082015250565b6000615299602083614804565b91506152a482615263565b602082019050919050565b600060208201905081810360008301526152c88161528c565b9050919050565b600081905092915050565b7f416363657373436f6e74726f6c3a206163636f756e7420000000000000000000600082015250565b60006153106017836152cf565b915061531b826152da565b601782019050919050565b600081519050919050565b600061533c82615326565b61534681856152cf565b9350615356818560208601614699565b80840191505092915050565b7f206973206d697373696e6720726f6c6520000000000000000000000000000000600082015250565b60006153986011836152cf565b91506153a382615362565b601182019050919050565b60006153b982615303565b91506153c58285615331565b91506153d08261538b565b91506153dc8284615331565b91508190509392505050565b60006153f382615326565b6153fd8185614804565b935061540d818560208601614699565b615416816142b7565b840191505092915050565b6000602082019050818103600083015261543b81846153e8565b905092915050565b7f4e487b7100000000000000000000000000000000000000000000000000000000600052603260045260246000fd5b600061547d82614014565b9150600082036154905761548f614913565b5b600182039050919050565b7f537472696e67733a20686578206c656e67746820696e73756666696369656e74600082015250565b60006154d1602083614804565b91506154dc8261549b565b602082019050919050565b60006020820190508181036000830152615500816154c4565b905091905056fea264697066735822122021d4fa760c2b3b7f19711fbdcade4f01867d198fb6c7d0b411341fd4b14d704e64736f6c63430008140033",
  "linkReferences": {},
  "deployedLinkReferences": {}
}