{
  "_format": "hh-sol-artifact-1",
  "contractName": "PoohToken",
  "sourceName": "contracts/boa-ethnet/PoohToken.sol",
  "abi": [
    {
      "inputs": [],
      "stateMutability": "nonpayable",
      "type": "constructor"
    },
    {
      "anonymous": false,
      "inputs": [
        {
          "indexed": true,
          "internalType": "address",
          "name": "owner",
          "type": "address"
        },
        {
          "indexed": true,
          "internalType": "address",
          "name": "spender",
          "type": "address"
        },
        {
          "indexed": false,
          "internalType": "uint256",
          "name": "value",
          "type": "uint256"
        }
      ],
      "name": "Approval",
      "type": "event"
    },
    {
      "anonymous": false,
      "inputs": [
        {
          "indexed": true,
          "internalType": "address",
          "name": "previousOwner",
          "type": "address"
        },
        {
          "indexed": true,
          "internalType": "address",
          "name": "newOwner",
          "type": "address"
        }
      ],
      "name": "OwnershipTransferred",
      "type": "event"
    },
    {
      "anonymous": false,
      "inputs": [
        {
          "indexed": true,
          "internalType": "address",
          "name": "from",
          "type": "address"
        },
        {
          "indexed": true,
          "internalType": "address",
          "name": "to",
          "type": "address"
        },
        {
          "indexed": false,
          "internalType": "uint256",
          "name": "value",
          "type": "uint256"
        }
      ],
      "name": "Transfer",
      "type": "event"
    },
    {
      "inputs": [],
      "name": "DECIMALS",
      "outputs": [
        {
          "internalType": "uint8",
          "name": "",
          "type": "uint8"
        }
      ],
      "stateMutability": "view",
      "type": "function"
    },
    {
      "inputs": [],
      "name": "INITIAL_SUPPLY",
      "outputs": [
        {
          "internalType": "uint256",
          "name": "",
          "type": "uint256"
        }
      ],
      "stateMutability": "view",
      "type": "function"
    },
    {
      "inputs": [
        {
          "internalType": "address",
          "name": "owner",
          "type": "address"
        },
        {
          "internalType": "address",
          "name": "spender",
          "type": "address"
        }
      ],
      "name": "allowance",
      "outputs": [
        {
          "internalType": "uint256",
          "name": "",
          "type": "uint256"
        }
      ],
      "stateMutability": "view",
      "type": "function"
    },
    {
      "inputs": [
        {
          "internalType": "address",
          "name": "spender",
          "type": "address"
        },
        {
          "internalType": "uint256",
          "name": "amount",
          "type": "uint256"
        }
      ],
      "name": "approve",
      "outputs": [
        {
          "internalType": "bool",
          "name": "",
          "type": "bool"
        }
      ],
      "stateMutability": "nonpayable",
      "type": "function"
    },
    {
      "inputs": [
        {
          "internalType": "address",
          "name": "account",
          "type": "address"
        }
      ],
      "name": "balanceOf",
      "outputs": [
        {
          "internalType": "uint256",
          "name": "",
          "type": "uint256"
        }
      ],
      "stateMutability": "view",
      "type": "function"
    },
    {
      "inputs": [],
      "name": "decimals",
      "outputs": [
        {
          "internalType": "uint8",
          "name": "",
          "type": "uint8"
        }
      ],
      "stateMutability": "view",
      "type": "function"
    },
    {
      "inputs": [
        {
          "internalType": "address",
          "name": "spender",
          "type": "address"
        },
        {
          "internalType": "uint256",
          "name": "subtractedValue",
          "type": "uint256"
        }
      ],
      "name": "decreaseAllowance",
      "outputs": [
        {
          "internalType": "bool",
          "name": "",
          "type": "bool"
        }
      ],
      "stateMutability": "nonpayable",
      "type": "function"
    },
    {
      "inputs": [
        {
          "internalType": "address",
          "name": "spender",
          "type": "address"
        },
        {
          "internalType": "uint256",
          "name": "addedValue",
          "type": "uint256"
        }
      ],
      "name": "increaseAllowance",
      "outputs": [
        {
          "internalType": "bool",
          "name": "",
          "type": "bool"
        }
      ],
      "stateMutability": "nonpayable",
      "type": "function"
    },
    {
      "inputs": [
        {
          "internalType": "address",
          "name": "to",
          "type": "address"
        },
        {
          "internalType": "uint256",
          "name": "amount",
          "type": "uint256"
        }
      ],
      "name": "mint",
      "outputs": [],
      "stateMutability": "nonpayable",
      "type": "function"
    },
    {
      "inputs": [],
      "name": "name",
      "outputs": [
        {
          "internalType": "string",
          "name": "",
          "type": "string"
        }
      ],
      "stateMutability": "view",
      "type": "function"
    },
    {
      "inputs": [],
      "name": "owner",
      "outputs": [
        {
          "internalType": "address",
          "name": "",
          "type": "address"
        }
      ],
      "stateMutability": "view",
      "type": "function"
    },
    {
      "inputs": [],
      "name": "renounceOwnership",
      "outputs": [],
      "stateMutability": "nonpayable",
      "type": "function"
    },
    {
      "inputs": [],
      "name": "symbol",
      "outputs": [
        {
          "internalType": "string",
          "name": "",
          "type": "string"
        }
      ],
      "stateMutability": "view",
      "type": "function"
    },
    {
      "inputs": [],
      "name": "totalSupply",
      "outputs": [
        {
          "internalType": "uint256",
          "name": "",
          "type": "uint256"
        }
      ],
      "stateMutability": "view",
      "type": "function"
    },
    {
      "inputs": [
        {
          "internalType": "address",
          "name": "to",
          "type": "address"
        },
        {
          "internalType": "uint256",
          "name": "amount",
          "type": "uint256"
        }
      ],
      "name": "transfer",
      "outputs": [
        {
          "internalType": "bool",
          "name": "",
          "type": "bool"
        }
      ],
      "stateMutability": "nonpayable",
      "type": "function"
    },
    {
      "inputs": [
        {
          "internalType": "address",
          "name": "from",
          "type": "address"
        },
        {
          "internalType": "address",
          "name": "to",
          "type": "address"
        },
        {
          "internalType": "uint256",
          "name": "amount",
          "type": "uint256"
        }
      ],
      "name": "transferFrom",
      "outputs": [
        {
          "internalType": "bool",
          "name": "",
          "type": "bool"
        }
      ],
      "stateMutability": "nonpayable",
      "type": "function"
    },
    {
      "inputs": [
        {
          "internalType": "address",
          "name": "newOwner",
          "type": "address"
        }
      ],
      "name": "transferOwnership",
      "outputs": [],
      "stateMutability": "nonpayable",
      "type": "function"
    }
  ],
  "bytecode": "0x60806040523480156200001157600080fd5b506040518060400160405280600981526020017f504f4f48544f4b454e00000000000000000000000000000000000000000000008152506040518060400160405280600381526020017f504f4f000000000000000000000000000000000000000000000000000000000081525081600390816200008f9190620005c1565b508060049081620000a19190620005c1565b505050620000c4620000b86200010260201b60201c565b6200010a60201b60201c565b620000fc33600760ff16600a620000dc91906200082b565b661342a51252d73f620000f091906200087c565b620001d060201b60201c565b620009b3565b600033905090565b6000600560009054906101000a900473ffffffffffffffffffffffffffffffffffffffff16905081600560006101000a81548173ffffffffffffffffffffffffffffffffffffffff021916908373ffffffffffffffffffffffffffffffffffffffff1602179055508173ffffffffffffffffffffffffffffffffffffffff168173ffffffffffffffffffffffffffffffffffffffff167f8be0079c531659141344cd1fd0a4f28419497f9722a3daafe3b4186f6b6457e060405160405180910390a35050565b600073ffffffffffffffffffffffffffffffffffffffff168273ffffffffffffffffffffffffffffffffffffffff160362000242576040517f08c379a0000000000000000000000000000000000000000000000000000000008152600401620002399062000928565b60405180910390fd5b62000256600083836200033d60201b60201c565b80600260008282546200026a91906200094a565b92505081905550806000808473ffffffffffffffffffffffffffffffffffffffff1673ffffffffffffffffffffffffffffffffffffffff168152602001908152602001600020600082825401925050819055508173ffffffffffffffffffffffffffffffffffffffff16600073ffffffffffffffffffffffffffffffffffffffff167fddf252ad1be2c89b69c2b068fc378daa952ba7f163c4a11628f55a4df523b3ef836040516200031d919062000996565b60405180910390a362000339600083836200034260201b60201c565b5050565b505050565b505050565b600081519050919050565b7f4e487b7100000000000000000000000000000000000000000000000000000000600052604160045260246000fd5b7f4e487b7100000000000000000000000000000000000000000000000000000000600052602260045260246000fd5b60006002820490506001821680620003c957607f821691505b602082108103620003df57620003de62000381565b5b50919050565b60008190508160005260206000209050919050565b60006020601f8301049050919050565b600082821b905092915050565b600060088302620004497fffffffffffffffffffffffffffffffffffffffffffffffffffffffffffffffff826200040a565b6200045586836200040a565b95508019841693508086168417925050509392505050565b6000819050919050565b6000819050919050565b6000620004a26200049c62000496846200046d565b62000477565b6200046d565b9050919050565b6000819050919050565b620004be8362000481565b620004d6620004cd82620004a9565b84845462000417565b825550505050565b600090565b620004ed620004de565b620004fa818484620004b3565b505050565b5b81811015620005225762000516600082620004e3565b60018101905062000500565b5050565b601f82111562000571576200053b81620003e5565b6200054684620003fa565b8101602085101562000556578190505b6200056e6200056585620003fa565b830182620004ff565b50505b505050565b600082821c905092915050565b6000620005966000198460080262000576565b1980831691505092915050565b6000620005b1838362000583565b9150826002028217905092915050565b620005cc8262000347565b67ffffffffffffffff811115620005e857620005e762000352565b5b620005f48254620003b0565b6200060182828562000526565b600060209050601f83116001811462000639576000841562000624578287015190505b620006308582620005a3565b865550620006a0565b601f1984166200064986620003e5565b60005b8281101562000673578489015182556001820191506020850194506020810190506200064c565b868310156200069357848901516200068f601f89168262000583565b8355505b6001600288020188555050505b505050505050565b7f4e487b7100000000000000000000000000000000000000000000000000000000600052601160045260246000fd5b60008160011c9050919050565b6000808291508390505b600185111562000736578086048111156200070e576200070d620006a8565b5b60018516156200071e5780820291505b80810290506200072e85620006d7565b9450620006ee565b94509492505050565b60008262000751576001905062000824565b8162000761576000905062000824565b81600181146200077a57600281146200078557620007bb565b600191505062000824565b60ff8411156200079a5762000799620006a8565b5b8360020a915084821115620007b457620007b3620006a8565b5b5062000824565b5060208310610133831016604e8410600b8410161715620007f55782820a905083811115620007ef57620007ee620006a8565b5b62000824565b620008048484846001620006e4565b925090508184048111156200081e576200081d620006a8565b5b81810290505b9392505050565b600062000838826200046d565b915062000845836200046d565b9250620008747fffffffffffffffffffffffffffffffffffffffffffffffffffffffffffffffff84846200073f565b905092915050565b600062000889826200046d565b915062000896836200046d565b9250828202620008a6816200046d565b91508282048414831517620008c057620008bf620006a8565b5b5092915050565b600082825260208201905092915050565b7f45524332303a206d696e7420746f20746865207a65726f206164647265737300600082015250565b600062000910601f83620008c7565b91506200091d82620008d8565b602082019050919050565b60006020820190508181036000830152620009438162000901565b9050919050565b600062000957826200046d565b915062000964836200046d565b92508282019050808211156200097f576200097e620006a8565b5b92915050565b62000990816200046d565b82525050565b6000602082019050620009ad600083018462000985565b92915050565b61184280620009c36000396000f3fe608060405234801561001057600080fd5b506004361061010b5760003560e01c806340c10f19116100a257806395d89b411161007157806395d89b41146102aa578063a457c2d7146102c8578063a9059cbb146102f8578063dd62ed3e14610328578063f2fde38b146103585761010b565b806340c10f191461023657806370a0823114610252578063715018a6146102825780638da5cb5b1461028c5761010b565b80632e0f2625116100de5780632e0f2625146101ac5780632ff2e9dc146101ca578063313ce567146101e857806339509351146102065761010b565b806306fdde0314610110578063095ea7b31461012e57806318160ddd1461015e57806323b872dd1461017c575b600080fd5b610118610374565b6040516101259190610f8b565b60405180910390f35b61014860048036038101906101439190611046565b610406565b60405161015591906110a1565b60405180910390f35b610166610429565b60405161017391906110cb565b60405180910390f35b610196600480360381019061019191906110e6565b610433565b6040516101a391906110a1565b60405180910390f35b6101b4610462565b6040516101c19190611155565b60405180910390f35b6101d2610467565b6040516101df91906110cb565b60405180910390f35b6101f0610472565b6040516101fd9190611155565b60405180910390f35b610220600480360381019061021b9190611046565b61047b565b60405161022d91906110a1565b60405180910390f35b610250600480360381019061024b9190611046565b6104b2565b005b61026c60048036038101906102679190611170565b6104c8565b60405161027991906110cb565b60405180910390f35b61028a610510565b005b610294610524565b6040516102a191906111ac565b60405180910390f35b6102b261054e565b6040516102bf9190610f8b565b60405180910390f35b6102e260048036038101906102dd9190611046565b6105e0565b6040516102ef91906110a1565b60405180910390f35b610312600480360381019061030d9190611046565b610657565b60405161031f91906110a1565b60405180910390f35b610342600480360381019061033d91906111c7565b61067a565b60405161034f91906110cb565b60405180910390f35b610372600480360381019061036d9190611170565b610701565b005b60606003805461038390611236565b80601f01602080910402602001604051908101604052809291908181526020018280546103af90611236565b80156103fc5780601f106103d1576101008083540402835291602001916103fc565b820191906000526020600020905b8154815290600101906020018083116103df57829003601f168201915b5050505050905090565b600080610411610784565b905061041e81858561078c565b600191505092915050565b6000600254905090565b60008061043e610784565b905061044b858285610955565b6104568585856109e1565b60019150509392505050565b600781565b661342a51252d73f81565b60006012905090565b600080610486610784565b90506104a7818585610498858961067a565b6104a29190611296565b61078c565b600191505092915050565b6104ba610c57565b6104c48282610cd5565b5050565b60008060008373ffffffffffffffffffffffffffffffffffffffff1673ffffffffffffffffffffffffffffffffffffffff168152602001908152602001600020549050919050565b610518610c57565b6105226000610e2b565b565b6000600560009054906101000a900473ffffffffffffffffffffffffffffffffffffffff16905090565b60606004805461055d90611236565b80601f016020809104026020016040519081016040528092919081815260200182805461058990611236565b80156105d65780601f106105ab576101008083540402835291602001916105d6565b820191906000526020600020905b8154815290600101906020018083116105b957829003601f168201915b5050505050905090565b6000806105eb610784565b905060006105f9828661067a565b90508381101561063e576040517f08c379a00000000000000000000000000000000000000000000000000000000081526004016106359061133c565b60405180910390fd5b61064b828686840361078c565b60019250505092915050565b600080610662610784565b905061066f8185856109e1565b600191505092915050565b6000600160008473ffffffffffffffffffffffffffffffffffffffff1673ffffffffffffffffffffffffffffffffffffffff16815260200190815260200160002060008373ffffffffffffffffffffffffffffffffffffffff1673ffffffffffffffffffffffffffffffffffffffff16815260200190815260200160002054905092915050565b610709610c57565b600073ffffffffffffffffffffffffffffffffffffffff168173ffffffffffffffffffffffffffffffffffffffff1603610778576040517f08c379a000000000000000000000000000000000000000000000000000000000815260040161076f906113ce565b60405180910390fd5b61078181610e2b565b50565b600033905090565b600073ffffffffffffffffffffffffffffffffffffffff168373ffffffffffffffffffffffffffffffffffffffff16036107fb576040517f08c379a00000000000000000000000000000000000000000000000000000000081526004016107f290611460565b60405180910390fd5b600073ffffffffffffffffffffffffffffffffffffffff168273ffffffffffffffffffffffffffffffffffffffff160361086a576040517f08c379a0000000000000000000000000000000000000000000000000000000008152600401610861906114f2565b60405180910390fd5b80600160008573ffffffffffffffffffffffffffffffffffffffff1673ffffffffffffffffffffffffffffffffffffffff16815260200190815260200160002060008473ffffffffffffffffffffffffffffffffffffffff1673ffffffffffffffffffffffffffffffffffffffff168152602001908152602001600020819055508173ffffffffffffffffffffffffffffffffffffffff168373ffffffffffffffffffffffffffffffffffffffff167f8c5be1e5ebec7d5bd14f71427d1e84f3dd0314c0f7b2291e5b200ac8c7c3b9258360405161094891906110cb565b60405180910390a3505050565b6000610961848461067a565b90507fffffffffffffffffffffffffffffffffffffffffffffffffffffffffffffffff81146109db57818110156109cd576040517f08c379a00000000000000000000000000000000000000000000000000000000081526004016109c49061155e565b60405180910390fd5b6109da848484840361078c565b5b50505050565b600073ffffffffffffffffffffffffffffffffffffffff168373ffffffffffffffffffffffffffffffffffffffff1603610a50576040517f08c379a0000000000000000000000000000000000000000000000000000000008152600401610a47906115f0565b60405180910390fd5b600073ffffffffffffffffffffffffffffffffffffffff168273ffffffffffffffffffffffffffffffffffffffff1603610abf576040517f08c379a0000000000000000000000000000000000000000000000000000000008152600401610ab690611682565b60405180910390fd5b610aca838383610ef1565b60008060008573ffffffffffffffffffffffffffffffffffffffff1673ffffffffffffffffffffffffffffffffffffffff16815260200190815260200160002054905081811015610b50576040517f08c379a0000000000000000000000000000000000000000000000000000000008152600401610b4790611714565b60405180910390fd5b8181036000808673ffffffffffffffffffffffffffffffffffffffff1673ffffffffffffffffffffffffffffffffffffffff16815260200190815260200160002081905550816000808573ffffffffffffffffffffffffffffffffffffffff1673ffffffffffffffffffffffffffffffffffffffff168152602001908152602001600020600082825401925050819055508273ffffffffffffffffffffffffffffffffffffffff168473ffffffffffffffffffffffffffffffffffffffff167fddf252ad1be2c89b69c2b068fc378daa952ba7f163c4a11628f55a4df523b3ef84604051610c3e91906110cb565b60405180910390a3610c51848484610ef6565b50505050565b610c5f610784565b73ffffffffffffffffffffffffffffffffffffffff16610c7d610524565b73ffffffffffffffffffffffffffffffffffffffff1614610cd3576040517f08c379a0000000000000000000000000000000000000000000000000000000008152600401610cca90611780565b60405180910390fd5b565b600073ffffffffffffffffffffffffffffffffffffffff168273ffffffffffffffffffffffffffffffffffffffff1603610d44576040517f08c379a0000000000000000000000000000000000000000000000000000000008152600401610d3b906117ec565b60405180910390fd5b610d5060008383610ef1565b8060026000828254610d629190611296565b92505081905550806000808473ffffffffffffffffffffffffffffffffffffffff1673ffffffffffffffffffffffffffffffffffffffff168152602001908152602001600020600082825401925050819055508173ffffffffffffffffffffffffffffffffffffffff16600073ffffffffffffffffffffffffffffffffffffffff167fddf252ad1be2c89b69c2b068fc378daa952ba7f163c4a11628f55a4df523b3ef83604051610e1391906110cb565b60405180910390a3610e2760008383610ef6565b5050565b6000600560009054906101000a900473ffffffffffffffffffffffffffffffffffffffff16905081600560006101000a81548173ffffffffffffffffffffffffffffffffffffffff021916908373ffffffffffffffffffffffffffffffffffffffff1602179055508173ffffffffffffffffffffffffffffffffffffffff168173ffffffffffffffffffffffffffffffffffffffff167f8be0079c531659141344cd1fd0a4f28419497f9722a3daafe3b4186f6b6457e060405160405180910390a35050565b505050565b505050565b600081519050919050565b600082825260208201905092915050565b60005b83811015610f35578082015181840152602081019050610f1a565b60008484015250505050565b6000601f19601f8301169050919050565b6000610f5d82610efb565b610f678185610f06565b9350610f77818560208601610f17565b610f8081610f41565b840191505092915050565b60006020820190508181036000830152610fa58184610f52565b905092915050565b600080fd5b600073ffffffffffffffffffffffffffffffffffffffff82169050919050565b6000610fdd82610fb2565b9050919050565b610fed81610fd2565b8114610ff857600080fd5b50565b60008135905061100a81610fe4565b92915050565b6000819050919050565b61102381611010565b811461102e57600080fd5b50565b6000813590506110408161101a565b92915050565b6000806040838503121561105d5761105c610fad565b5b600061106b85828601610ffb565b925050602061107c85828601611031565b9150509250929050565b60008115159050919050565b61109b81611086565b82525050565b60006020820190506110b66000830184611092565b92915050565b6110c581611010565b82525050565b60006020820190506110e060008301846110bc565b92915050565b6000806000606084860312156110ff576110fe610fad565b5b600061110d86828701610ffb565b935050602061111e86828701610ffb565b925050604061112f86828701611031565b9150509250925092565b600060ff82169050919050565b61114f81611139565b82525050565b600060208201905061116a6000830184611146565b92915050565b60006020828403121561118657611185610fad565b5b600061119484828501610ffb565b91505092915050565b6111a681610fd2565b82525050565b60006020820190506111c1600083018461119d565b92915050565b600080604083850312156111de576111dd610fad565b5b60006111ec85828601610ffb565b92505060206111fd85828601610ffb565b9150509250929050565b7f4e487b7100000000000000000000000000000000000000000000000000000000600052602260045260246000fd5b6000600282049050600182168061124e57607f821691505b60208210810361126157611260611207565b5b50919050565b7f4e487b7100000000000000000000000000000000000000000000000000000000600052601160045260246000fd5b60006112a182611010565b91506112ac83611010565b92508282019050808211156112c4576112c3611267565b5b92915050565b7f45524332303a2064656372656173656420616c6c6f77616e63652062656c6f7760008201527f207a65726f000000000000000000000000000000000000000000000000000000602082015250565b6000611326602583610f06565b9150611331826112ca565b604082019050919050565b6000602082019050818103600083015261135581611319565b9050919050565b7f4f776e61626c653a206e6577206f776e657220697320746865207a65726f206160008201527f6464726573730000000000000000000000000000000000000000000000000000602082015250565b60006113b8602683610f06565b91506113c38261135c565b604082019050919050565b600060208201905081810360008301526113e7816113ab565b9050919050565b7f45524332303a20617070726f76652066726f6d20746865207a65726f2061646460008201527f7265737300000000000000000000000000000000000000000000000000000000602082015250565b600061144a602483610f06565b9150611455826113ee565b604082019050919050565b600060208201905081810360008301526114798161143d565b9050919050565b7f45524332303a20617070726f766520746f20746865207a65726f20616464726560008201527f7373000000000000000000000000000000000000000000000000000000000000602082015250565b60006114dc602283610f06565b91506114e782611480565b604082019050919050565b6000602082019050818103600083015261150b816114cf565b9050919050565b7f45524332303a20696e73756666696369656e7420616c6c6f77616e6365000000600082015250565b6000611548601d83610f06565b915061155382611512565b602082019050919050565b600060208201905081810360008301526115778161153b565b9050919050565b7f45524332303a207472616e736665722066726f6d20746865207a65726f20616460008201527f6472657373000000000000000000000000000000000000000000000000000000602082015250565b60006115da602583610f06565b91506115e58261157e565b604082019050919050565b60006020820190508181036000830152611609816115cd565b9050919050565b7f45524332303a207472616e7366657220746f20746865207a65726f206164647260008201527f6573730000000000000000000000000000000000000000000000000000000000602082015250565b600061166c602383610f06565b915061167782611610565b604082019050919050565b6000602082019050818103600083015261169b8161165f565b9050919050565b7f45524332303a207472616e7366657220616d6f756e742065786365656473206260008201527f616c616e63650000000000000000000000000000000000000000000000000000602082015250565b60006116fe602683610f06565b9150611709826116a2565b604082019050919050565b6000602082019050818103600083015261172d816116f1565b9050919050565b7f4f776e61626c653a2063616c6c6572206973206e6f7420746865206f776e6572600082015250565b600061176a602083610f06565b915061177582611734565b602082019050919050565b600060208201905081810360008301526117998161175d565b9050919050565b7f45524332303a206d696e7420746f20746865207a65726f206164647265737300600082015250565b60006117d6601f83610f06565b91506117e1826117a0565b602082019050919050565b60006020820190508181036000830152611805816117c9565b905091905056fea2646970667358221220306f9ec7c0d6df5b5a5e8eef71b0d165f3b326cb9078d594e0dbd352c1d6408b64736f6c63430008140033",
  "linkReferences": {},
  "deployedLinkReferences": {}
}